:020000040800F2
:10000000A00800200D0B0008690B0008690B000810
:10001000690B0008690B0008690B0008000000006C
:10002000000000000000000000000000690B000854
:10003000690B000800000000690B0008690B00084C
:10004000690B0008690B0008690B0008690B0008C0
:10005000690B0008690B0008690B0008690B0008B0
:10006000690B0008690B0008690B0008690B0008A0
:10007000690B0008690B0008690B0008690B000890
:10008000690B0008690B0008690B0008690B000880
:10009000690B0008690B0008690B0008690B000870
:1000A000690B0008690B0008690B0008690B000860
:1000B000890F0008DD0E0008690B0008690B0008B5
:1000C000690B0008690B0008690B0008690B000840
:1000D000690B0008690B0008690B0008E10B0008B8
:1000E000690B0008690B0008690B0008690B000820
:1000F000690B0008690B0008690B0008690B000810
:10010000690B0008690B0008690B0008690B0008FF
:10011000690B0008690B0008690B0008690B0008EF
:10012000690B0008690B0008690B0008690B0008DF
:10013000690B0008690B0008690B0008690B0008CF
:10014000690B0008690B0008690B0008690B0008BF
:10015000690B0008690B0008690B0008690B0008AF
:10016000690B0008690B0008690B0008690B00089F
:10017000690B0008690B0008690B0008690B00088F
:10018000690B0008690B000880B58AB000AF786081
:10019000396000237B6200233B620023FB61002364
:1001A000BB617B681B8A9BB27B627B6A23F44053F2
:1001B0007B623B68DB881A467B6A13437B627B6AFF
:1001C0009AB27B681A827B689B899BB27B627B6A4E
:1001D00023F4B05323F00C037B623B689A883B689E
:1001E0001B8913439AB23B685B8913439BB21A463F
:1001F0007B6A13437B627B6A9AB27B689A817B68D5
:100200009B8A9BB27B627B6A23F440737B623B6870
:100210009B891A467B6A13437B627B6A9AB27B682E
:100220009A8207F10803184601F0B4F97B68304A56
:10023000934203D07B682F4A934202D17B693B6291
:1002400001E03B693B627B689B899BB21BB2002B40
:100250000CDA3A6A13469B0013449A001A443B682E
:100260001B685B00B2FBF3F3FB610BE03A6A1346D9
:100270009B0013449A001A443B681B689B00B2FB26
:10028000F3F3FB61FB691C4AA2FB03235B091B011F
:100290007B627B6A1B09642202FB03F3FA69D31AAF
:1002A000BB617B689B899BB21BB2002B0CDABB69DC
:1002B000DB003233104AA2FB03235B0903F0070380
:1002C0007A6A13437B620BE0BB691B0132330A4A33
:1002D000A2FB03235B0903F00F037A6A13437B62DB
:1002E0007B6A9AB27B681A8100BF2837BD4680BD01
:1002F00000100140001401401F85EB5180B483B011
:1003000000AF78600B46FB70FB78002B08D07B6851
:100310009B899BB243F400539AB27B689A8107E0B1
:100320007B689B899BB223F400539AB27B689A81C5
:1003300000BF0C37BD4680BC704700BF80B483B09F
:1003400000AF78607B689B889BB2C3F308039BB2C5
:1003500018460C37BD4680BC704700BF80B487B0DC
:1003600000AF78600B467B8013467B7000233B61B7
:100370000023FB600023BB6000237B617B687B6103
:100380007B88DBB25B09DBB23B617B8803F01F0338
:10039000FB600122FB6802FA03F3BB603B69012B9F
:1003A00003D17B690C337B6109E03B69022B03D1EC
:1003B0007B6910337B6102E07B6914337B617B785E
:1003C000002B06D07B697A691168BA680A431A6003
:1003D00006E07B697A691168BA68D2430A401A60FC
:1003E00000BF1C37BD4680BC704700BF80B487B0DB
:1003F00000AF78600B467B800023FB6000237B61AD
:100400000023BB600023FB747B88DBB25B09DBB29B
:10041000BB607B8803F01F037B6101227B6902FACA
:1004200003F37B61BB68012B07D17B689B899BB27F
:100430001A467B6913407B6111E0BB68022B07D130
:100440007B681B8A9BB21A467B6913407B6106E07E
:100450007B689B8A9BB21A467B6913407B617B88D1
:100460001B0A9BB2FB600122FB6802FA03F3FB60EC
:100470007B681B889BB21A46FB681340FB607B6954
:10048000002B05D0FB68002B02D00123FB7401E098
:100490000023FB74FB7C18461C37BD4680BC7047AC
:1004A00080B483B000AF0346FB71084997F9073069
:1004B0005B09FA7902F01F02012000FA02F241F80A
:1004C000232000BF0C37BD4680BC704700E100E030
:1004D00080B590B000AF01214FF4800001F004F925
:1004E00000237B6000233B614FF48073BB624FF4B9
:1004F0000033FB6208237B61114BBB60114BFB6037
:100500004FF48063FB610023BB614FF400633B62E7
:100510004FF400537B620023FB630023BB63002383
:100520003B6303237B633B1D1946074801F0A6FC90
:100530000121054801F0F8FC00BF4037BD4680BDF1
:100540004C200140780000207064024080B58CB0DF
:1005500000AF0121012001F0C7F8AF23BB620323E4
:1005600087F82C30002387F82F3007F1280319462D
:10057000444801F0BDFA0121022001F0B5F803233F
:10058000BB62032387F82C30002387F82F3007F154
:10059000280319463C4801F0ABFA0423BB6201234F
:1005A00087F82C30002387F82F3007F128031946ED
:1005B000354801F09DFA0023BB610023FB614FF435
:1005C00000433B6200237B6207F11803184601F0E9
:1005D00039F901214FF4807001F0C2F800233B602B
:1005E00001233B7101237B710023FB600023BB606F
:1005F00000233B6108233B753B461946234801F025
:10060000CDF8042301220821204801F05FF90423DA
:10061000022209211D4801F059F904230322002177
:100620001A4801F053F9042304220121174801F06C
:100630004DF9042305220221144801F047F904234F
:1006400006220321114801F041F904230722072162
:100650000E4801F03BF90423082205210B4801F064
:1006600035F90121094801F027FA0121074801F075
:1006700007FA0121054801F00DF900BF3037BD46EA
:1006800080BD00BF00000240000402400020014085
:1006900080B58AB000AF0121082001F025F84FF4A1
:1006A00070433B62022387F82430002387F826300A
:1006B000032387F82530002387F8273007F120032C
:1006C0001946314801F014FA0121042001F02AF8FA
:1006D00042F20F73BB615323BB820023BB83002311
:1006E000FB8207F114031946284801F0ABFC0121F5
:1006F000264801F011FD60233B8001237B8000230D
:10070000BB600023BB813B461946204801F024FD15
:1007100008211E4801F00EFF3B4619461B4801F018
:1007200095FD0821194801F021FF3B46194617485D
:1007300001F014FE0821154801F036FF3B4619462A
:10074000124801F091FE0821104801F049FF0222F1
:100750000C210D4801F0A2FA02220D210A4801F0F5
:100760009DFA02220E21084801F098FA02220F2178
:10077000054801F093FA0121044801F0CDFC00BFC7
:100780002837BD4680BD00BF000C02400008004075
:1007900080B582B000AF0121102000F0A5FF7C23BE
:1007A0003B6001233B710023BB7103237B7100235A
:1007B000FB713B461946034801F09AF900BF083720
:1007C000BD4680BD0010024080B58AB000AF7860A1
:1007D0000121042000F088FF01214FF4802000F067
:1007E000A1FF4FF440633B62022387F824300023CB
:1007F00087F82630012387F82730022387F8253031
:1008000007F1200319461E4801F072F907220A2158
:100810001B4801F043FA07220B21194801F03EFA68
:100820007B683B610023BB820023FB8200233B8368
:100830000023BB830C237B8307F110031946114867
:10084000FFF7A2FC01210F48FFF758FD012240F2FB
:1008500025510C48FFF782FD27233B7300237B7350
:100860000023BB730123FB7307F10C03184601F04F
:1008700089FB2720FFF714FE00BF2837BD4680BD47
:10088000000802400048004080B58AB000AF012156
:10089000042000F029FF80233B62022387F82430E4
:1008A000002387F82630032387F82530002387F8B4
:1008B000273007F120031946254801F019F90222D3
:1008C0000721234801F0EAF90121022000F02AFF64
:1008D00042F20F73BB615323BB820023BB8300230F
:1008E000FB8207F1140319461A4801F0ABFB0423FD
:1008F0003B810A237B810023FB810123BB810023F1
:100900003B8207F108031946124801F087FE4FF4B5
:10091000C06001F025FB1D233B7101237B71012386
:10092000BB710123FB713B1D184601F02BFB01211C
:10093000084801F095FF01220121064801F042FF1D
:100940000121044801F0E8FB00BF2837BD4680BD07
:10095000000802400004004080B58AB000AF0121C9
:100960004FF0005000F0DEFE0121012000F0BCFE3F
:1009700010233B62032387F82430002387F82630B6
:10098000032387F82530002387F8273007F1200359
:100990001946254801F0ACF800233B6100237B6138
:1009A0000023BB610023FB6107F1100319460020FF
:1009B00000F03CF80121002000F06AF8002100203E
:1009C00000F08AF80121012000F0ACFEF923BB60A1
:1009D0000923BB800023BB810023FB803B1D1946FC
:1009E0004FF0804001F02EFB4FF4C06001F0B8FAE8
:1009F0001C233B7000237B700023BB700123FB7022
:100A00003B46184601F0BEFA01214FF0804001F04C
:100A100027FF012201214FF0804001F0D3FE00BFEB
:100A20002837BD4680BD00BF0000024080B485B0BD
:100A300000AF786039600023FB600023BB60134B7C
:100A40001B68FB6040F6FE727B6802FA03F3DB432F
:100A5000FA681340FB603B681A683B685B681A439E
:100A60003B689B681A433B68DB681343BB60BA680A
:100A70007B6802FA03F3FA681343FB60034AFB68DE
:100A8000136000BF1437BD4680BC7047007400403F
:100A900080B483B000AF78600B46FB70FB78002B0E
:100AA00009D00C490B4B1A6801207B6800FA03F34C
:100AB00013430B6009E00749064B1A6801207B6865
:100AC00000FA03F3DB4313400B6000BF0C37BD4655
:100AD00080BC70470074004080B485B000AF78607F
:100AE0000B467B800023FB60074BFB60FA687B684A
:100AF00013440833FB60FB681A467B88136000BF11
:100B00001437BD4680BC70470074004080B582B089
:100B100000AF104B7B60104B3B6007E03B681A1D39
:100B20003A607A68111D796012681A603B680B4A56
:100B30009342F3D30A480B494FF000028842B8BFF2
:100B400040F8042BFADB00F0C5FC00BF0837BD46B7
:100B500080BD00BF8A7D0208000000203800002010
:100B600038000020A000002080B400AFFEE700BFE6
:100B700080B500AF1421044801F062F82821024832
:100B800001F06CF800BF80BD0010024080B500AFDE
:100B90002821044801F054F81421024801F05EF8BD
:100BA00000BF80BD0010024080B500AF182104488E
:100BB00001F046F82421024801F050F800BF80BD42
:100BC0000010024080B500AF2421044801F038F83D
:100BD0001821024801F042F800BF80BD0010024019
:100BE00098B500AF40F22551AF48FFF7FFFB034631
:100BF000002B00F05681AD4B1C68AB48FFF79EFB05
:100C00000346DAB2AA4B1A55A84B1B680133A74A10
:100C10001360A64B1B68042B02DDA44B00221A6054
:100C2000A14B9B889BB20A2B40F03B81A04B1B78C9
:100C3000423B372B00F2318101A252F823F000BF72
:100C4000F50D00089B0E0008030E00089B0E00081F
:100C50009B0E00089B0E00089B0E00089B0E0008D0
:100C60009B0E00089B0E0008E70D00089B0E000875
:100C70009B0E00089B0E00089B0E00089B0E0008B0
:100C80009B0E0008210E0008470E00089B0E00086E
:100C90009B0E00089B0E00089B0E00089B0E000890
:100CA0009B0E00089B0E00089B0E00089B0E000880
:100CB0009B0E00089B0E00089B0E00089B0E000870
:100CC0009B0E00089B0E00089B0E00089B0E000860
:100CD0009B0E00089B0E00089B0E00089B0E000850
:100CE0009B0E00089B0E00089B0E00089B0E000840
:100CF0009B0E0008B90D00089B0E00089B0E000813
:100D00009B0E00089B0E00089B0E00089B0E00081F
:100D10009B0E00089B0E0008210D00086D0D0008B9
:100D2000634B5B782D2B10D1624B1B78002B02D1CB
:100D3000614B00221A705E4B9B78303BDAB25F4BFE
:100D40001A705A4B00221A60ABE05A4B1B78002BEA
:100D500002D1594B01221A70554B5B78303BDAB205
:100D6000564B1A70514B00221A609AE0504B5B7838
:100D70002D2B10D1514B1B78002B02D14E4B022250
:100D80001A704B4B9B78303BDAB24A4B1A70474B88
:100D900000221A6085E0494B1B78002B02D1464B9C
:100DA00003221A70424B5B78303BDAB2414B1A7027
:100DB0003E4B00221A6074E04021414800F05CFF85
:100DC00040213F4800F022FF0346002B04D03D4A5B
:100DD0003C4BDB6AD36302E03A4B0022DA63334BCD
:100DE00000221A605DE0384B00221A702F4B00225F
:100DF0001A6056E0344B01221A702C4B00221A6004
:100E00004FE0324B1B78002B03D1304B01221A707C
:100E100002E02E4B00221A70244B00221A6040E0A0
:100E20004FF0804300225A6201214FF0804001F0D0
:100E300073F9274B01221A70264B00221A601B4BB4
:100E400000221A602DE0244B1B78002B12D10121C7
:100E50004FF0804001F060F91F4B01221A704FF0F3
:100E6000804300225A621A4B00221A70194B00224A
:100E70001A600EE0184B00221A7000214FF08040DB
:100E800001F04AF94FF0804300225A62114B0022D0
:100E90001A60064B00221A6003E0044B00221A601D
:100EA00000BF00BF98BD00BF0048004038000020D0
:100EB000980000203D0000203E0000203C00002063
:100EC0000010024000080040000000201C0000202C
:100ED00024000020880000207600002080B500AFAC
:100EE0000121214801F092FC0346002B39D01F4B11
:100EF0001B78002B2ED080211D4800F087FE034672
:100F0000002B07D0184801F0DDFB03469AB2194BBD
:100F10001A8006E0144801F0D5FB03469AB2164B3E
:100F20001A80154B1A88134B1B88D31A9AB2134B8D
:100F30001A80124B1B881A4613461B0113445B0090
:100F40000F4A82FB0312D211DB17D31A9AB20D4B50
:100F50001A8002E00B4B00221A800121024801F0A6
:100F60007FFC00BF80BD00BF000400401C000020CB
:100F70000008024070000020720000208C00002059
:100F8000D34D62107400002098B500AF01214FF0DE
:100F9000804001F03BFC0346002B77D03E4B1B7892
:100FA000002B02D0012B34D06BE03C4B1B683C4A39
:100FB000D35C184601F0DAFE35A3D3E9002301F033
:100FC0003BFF03460C461846214602F047F903460C
:100FD000DAB2344B1A70334B1B789BB2194600209F
:100FE000FFF77AFD2D4B1B6801332C4A13602B4B06
:100FF0001B682D4A934241D1284B00221A604FF0C2
:10100000804300225A6200214FF0804001F084F8B2
:1010100034E0224B1B68254AD35C184601F0A6FE3B
:101020001BA3D3E9002301F007FF03460C46184633
:10103000214602F013F90346DAB21A4B1A70194B23
:101040001B789BB219460020FFF746FD134B1B6827
:101050000133124A1360114B1B684DF23432934234
:101060000ED10E4B00221A604FF0804300225A62CC
:1010700000214FF0804001F04FF801E000BF00E098
:1010800000BF01214FF0804001F0EAFB00BF98BD96
:10109000CDCCCCCCCCCCF43F240000208800002068
:1010A0003C0601088E0000204E7701009C320008AB
:1010B00080B483B000AF884B1B889AB2874B1A80EC
:1010C000854B5B889AB2864B1A80834B9B889AB279
:1010D000844B1A80804BDB889AB2834B1A807E4BFC
:1010E0001B899AB2814B1A807B4B5B899AB2804BE9
:1010F0001A80794B9B899AB27E4B1A80764BDB899A
:101100009AB27D4B1A807C4B1B88B3F57A7F10D93D
:101110007A4BB3F900301A46794B1B681344784A6E
:101120001360784B1B680133764A1360764B0022BC
:101130001A60704B1A88754B1B889A4210D9744BF1
:10114000B3F900301A466E4B1B6813446C4A1360A7
:101150006C4B1B6801336B4A13606B4B00221A60A7
:10116000634B1A88694B1B889A420DD9694BB3F9B6
:1011700000301A46624B1B681344614A1360614B8E
:101180001B6801335F4A1360554B1A885F4B1B88FD
:101190009A420DD9604BB3F900301A46584B1B6880
:1011A0001344574A1360574B1B680133554A136069
:1011B0004A4B1A88554B1B889A420DD9574BB3F9A5
:1011C00000301A464E4B1B6813444D4A13604D4B7A
:1011D0001B6801334B4A1360444B1A884B4B1B88E6
:1011E0009A420DD94E4BB3F900301A46444B1B6856
:1011F0001344434A1360434B1B680133414A136055
:10120000394B1A88414B1B889A4210D9454BB3F988
:1012100000301A463A4B1B681344394A1360394B65
:101220001B680133374A1360374B01221A602D4B7C
:101230001A88364B1B889A4210D93B4BB3F90030C1
:101240001A462F4B1B6813442D4A13602D4B1B6805
:1012500001332C4A13602C4B01221A60284B1A6868
:10126000284B1B6892FBF3F3304A1360304B1B682A
:101270002E4A126802FB03F37B602C4B1A682D4B3D
:101280001B68D31A2C4A126802FB03F33B607B688D
:101290009AB23B689BB213449BB21AB2274B1A8096
:1012A000224B1B68234A1360164B1B68002B4BD143
:1012B000154B1B68002B07D1214B00225A63204B92
:1012C000204A12689A637FE01D4B1E4A12685A63D7
:1012D0001B4B00229A6377E0780000204800002032
:1012E0004A00002042000020440000204600002068
:1012F0004C0000204E000020500000201000002074
:101300005400002058000020680000200200002047
:1013100012000020140000206E0000206C0000204D
:1013200016000020180000201A0000205C00002099
:10133000040000206400002008000020600000205D
:10134000000800400C000020254BB3F90030002BB2
:101350001CDB234BB3F900301A46224B1B689A4220
:1013600007DB214B1F4A12685A631F4B00229A6306
:101370002AE01D4B1B4A12685A631B4A194B1B6813
:101380001749B1F900105B1A93631DE0144BB3F9D0
:1013900000301A46134B1B685B429A4207DC124B23
:1013A00000225A63104B0F4A12689A630CE00E4AEF
:1013B0000B4BB3F9003019460A4B1B680B445363BF
:1013C000094B084A12689A63084B00221A60084BBE
:1013D00000221A6000BF0C37BD4680BC704700BFBA
:1013E000600000200C000020000800405800002091
:1013F0005400002080B500AF324B1B78032B5FD820
:1014000001A252F823F000BF191400084314000889
:101410006D14000897140008FFF7AAFB2A4B2B4A0B
:101420001278114640F2CF7202FB01F25A63264B4A
:10143000264A1278114640F2CF7202FB01F29A63FB
:101440003EE0FFF7A3FB204B204A1278114640F202
:10145000CF7202FB01F25A631B4B1C4A12781146F1
:1014600040F2CF7202FB01F29A6329E0FFF79CFB86
:10147000154B174A1278114640F2CF7202FB01F267
:101480005A63114B124A1278114640F2CF7202FB96
:1014900001F29A6314E0FFF795FB0B4B0C4A1278AC
:1014A000114640F2CF7202FB01F25A63064B084A22
:1014B0001278114640F2CF7202FB01F29A6300BF2C
:1014C00000BF80BD3E000020000800403C0000201E
:1014D0003D00002080B500AF00F028FC4FF416500E
:1014E000FFF772F9FFF7D4F8FFF752F9FEF7F0FFB4
:1014F000FFF72CF81F4800F0B3FA04211E4800F053
:101500009FFBFFF7C1F91D4B0922DA63FFF724FAAD
:1015100014211B4800F094FB2821194800F09EFB81
:101520004021174800F08CFB4FF080435B6A9AB271
:10153000144B1A80144B1B78002B02D0012B0BD0BC
:101540000DE014210E4800F07BFB28210C4800F030
:1015500085FBFFF7ADFD02E0FFF74CFF00BF074B37
:101560009B6B1A46094B1A60044B5B6B1A46084B7F
:101570001A60D9E700200140000402400008004042
:1015800000100240400000200000002094000020D5
:101590009000002080B489B000AF78600023BB6168
:1015A00000237B610023FB6102233B610023FB607E
:1015B0000223BB60484B9B6803F00C03BB61BB6913
:1015C000042B07D0082B09D0002B3FD17B68434A5E
:1015D0001A603FE07B68424A1A603BE03E4B5B6822
:1015E00003F480039B0DFB603B4B5B6803F03F0300
:1015F000BB60FB68002B0DD0394ABB68B2FBF3F22D
:10160000354B596847F6C0730B409B0903FB02F347
:10161000FB610CE0314ABB68B2FBF3F22E4B596818
:1016200047F6C0730B409B0903FB02F3FB612A4B97
:101630005B6803F440331B0C01335B003B61FA69C8
:101640003B69B2FBF3F27B681A6003E07B68234AD4
:101650001A6000BF204B9B6803F0F003BB61BB69BD
:101660001B09BB611F4ABB6913441B78DBB27B615A
:101670007B681A687B69DA407B685A60164B9B6806
:1016800003F4E053BB61BB699B0ABB61154ABB69AC
:1016900013441B78DBB27B617B685A687B69DA4054
:1016A0007B689A600C4B9B6803F46043BB61BB6929
:1016B0005B0BBB610B4ABB6913441B78DBB27B61DC
:1016C0007B685A687B69DA407B68DA6000BF243740
:1016D000BD4680BC704700BF003802400024F400C3
:1016E00000127A002800002080B483B000AF786038
:1016F0000B46FB70FB78002B06D00949084B1A6B90
:101700007B6813430B6306E00549054B1A6B7B6846
:10171000DB4313400B6300BF0C37BD4680BC7047F2
:101720000038024080B483B000AF78600B46FB7095
:10173000FB78002B06D00949084B1A6C7B681343D1
:101740000B6406E00549054B1A6C7B68DB431340CC
:101750000B6400BF0C37BD4680BC704700380240A8
:1017600080B483B000AF78600B46FB70FB78002B31
:1017700006D00949084B5A6C7B6813434B6406E05A
:101780000549054B5A6C7B68DB4313404B6400BF33
:101790000C37BD4680BC70470038024080B485B02D
:1017A00000AF786039600023FB600023FB727B6828
:1017B0005B68FB60FB6823F0407323F48073FB607D
:1017C0003B681B791A023B681B681343FA68134392
:1017D000FB607B68FA685A607B689B68FB60FA680C
:1017E000174B1340FB603B681A693B68DB681A4380
:1017F0003B689B681A433B685B795B001343FA685C
:101800001343FB607B68FA689A607B68DB6AFB6065
:10181000FB6823F47003FB603B681B7D013BDAB27D
:10182000FB7A1343FB72FB7A1B05FA681343FB60D8
:101830007B68FA68DA6200BF1437BD4680BC704727
:10184000FDF7FFC080B485B000AF78600023FB6077
:101850000E4B5B68FB60FA680D4B1340FB607B68C6
:101860001A687B685B681A437B689B681A437B68CD
:10187000DB681343FA681343FB60044AFB68536058
:1018800000BF1437BD4680BC704700BF0023014035
:10189000E030FCFF80B483B000AF78600B46FB7093
:1018A000FB78002B06D07B689B6843F001027B68C5
:1018B0009A6005E07B689B6823F001027B689A6070
:1018C00000BF0C37BD4680BC704700BF80B485B0F8
:1018D00000AF7860084611461A460346FB700B4677
:1018E000BB7013467B700023FB600023BB60FB785A
:1018F000092B23D97B68DB68FB60FB78A3F10A0224
:1019000013465B001344072202FA03F3BB60BB6873
:10191000DB43FA681340FB607978FB78A3F10A0295
:1019200013465B00134401FA03F3BB60FA68BB681B
:101930001343FB607B68FA68DA601EE07B681B6912
:10194000FB60FA7813465B001344072202FA03F3A4
:10195000BB60BB68DB43FA681340FB607978FA78B8
:1019600013465B00134401FA03F3BB60FA68BB68DB
:101970001343FB607B68FA681A61BB78062B21D899
:101980007B685B6BFB60BB785A1E13469B0013445D
:101990001F2202FA03F3BB60BB68DB43FA68134003
:1019A000FB60F978BB785A1E13469B00134401FA7A
:1019B00003F3BB60FA68BB681343FB607B68FA689B
:1019C0005A6347E0BB780C2B21D87B681B6BFB600C
:1019D000BB78DA1F13469B0013441F2202FA03F35D
:1019E000BB60BB68DB43FA681340FB60F978BB78E7
:1019F000DA1F13469B00134401FA03F3BB60FA6835
:101A0000BB681343FB607B68FA681A6322E07B685B
:101A1000DB6AFB60BB78A3F10D0213469B00134405
:101A20001F2202FA03F3BB60BB68DB43FA68134072
:101A3000FB60F978BB78A3F10D0213469B001344B9
:101A400001FA03F3BB60FA68BB681343FB607B6871
:101A5000FA68DA6200BF1437BD4680BC704700BF29
:101A600080B483B000AF78607B689B6843F08042AD
:101A70007B689A6000BF0C37BD4680BC704700BFD2
:101A800080B483B000AF78600B46FB70FB78002B0E
:101A900006D07B689B6843F480727B689A6005E09F
:101AA0007B689B6823F480727B689A6000BF0C3768
:101AB000BD4680BC704700BF80B483B000AF786083
:101AC0000B46FB70FB78002B06D07B689B6843F4C9
:101AD00000727B689A6005E07B689B6823F4007263
:101AE0007B689A6000BF0C37BD4680BC704700BF62
:101AF00080B487B000AF7860396000237B61002339
:101B00003B610023FB6000237B6176E001227B695F
:101B100002FA03F33B613B681A683B691340FB60C0
:101B2000FA683B699A4265D17B681A687B695B00F9
:101B3000032101FA03F3DB431A407B681A607B68D8
:101B40001A683B681B7919467B695B0001FA03F34D
:101B50001A437B681A603B681B79012B03D03B68F2
:101B60001B79022B2ED17B689A687B695B0003216D
:101B700001FA03F3DB431A407B689A607B689A683A
:101B80003B685B7919467B695B0001FA03F31A43F2
:101B90007B689A607B685A687B699BB2194601230F
:101BA0008B40DB431A407B685A607B685B683A680D
:101BB000927911467A6992B201FA02F292B21A430C
:101BC0007B685A607B68DA687B699BB25B000321A3
:101BD00001FA03F3DB431A407B68DA607B68DA685A
:101BE0003B68DB7919467B695B0001FA03F31A4312
:101BF0007B68DA607B6901337B617B690F2B85D958
:101C000000BF1C37BD4680BC704700BF80B485B0A4
:101C100000AF78600B467B800023FB737B681A69FA
:101C20007B881340002B02D00123FB7301E00023CB
:101C3000FB73FB7B18461437BD4680BC704700BF62
:101C400080B483B000AF78600B467B807B687A8875
:101C50001A8300BF0C37BD4680BC704780B483B088
:101C600000AF78600B467B807B687A885A8300BF20
:101C70000C37BD4680BC704780B483B000AF78603D
:101C80000B467B807B685A697B885A407B685A6127
:101C900000BF0C37BD4680BC704700BF80B485B024
:101CA00000AF78600B467B8013467B700023FB609F
:101CB0000023BB607A787B8803F007039B0002FA5D
:101CC00003F3FB607B88DB089BB218467B88DB084C
:101CD0009BB21A467B68083253F822207B8803F0B7
:101CE00007039B000F2101FA03F3DB4302EA030120
:101CF0007B6800F1080243F822107B88DB089BB266
:101D00001A467B68083253F82220FB681343BB60F5
:101D10007B88DB089BB21A467B680832B96843F8B7
:101D2000221000BF1437BD4680BC704780B500AF9D
:101D3000124A124B1B6843F0010313600F4B002241
:101D40009A600E4A0D4B1B6823F0847323F4803392
:101D500013600A4B0A4A5A60084A084B1B6823F46E
:101D600080231360054B0022DA6000F00DF8054B6C
:101D70004FF000629A6000BF80BD00BF0038024093
:101D80001030002400ED00E080B483B000AF0023E9
:101D90007B6000233B60354A344B1B6843F480333F
:101DA0001360324B1B6803F400333B607B680133E4
:101DB0007B603B68002B03D17B68B3F5A06FF0D14B
:101DC0002A4B1B6803F40033002B02D001233B6035
:101DD00001E000233B603B68012B42D1234A234BA7
:101DE0001B6C43F080531364214A214B1B6843F45E
:101DF000804313601D4A1D4B9B6893601B4A1B4B1D
:101E00009B6843F400439360184A184B9B6843F463
:101E1000A0539360154B174A5A60144A134B1B6822
:101E200043F08073136000BF104B1B6803F0007316
:101E3000002BF9D0104B40F205621A600B4A0B4B95
:101E40009B6823F003039360084A084B9B6843F0A8
:101E50000203936000BF054B9B6803F00C03082B43
:101E6000F9D100BF0C37BD4680BC70470038024036
:101E70000070004008544007003C024080B485B028
:101E800000AF786039600023FB607B681B68FB60F3
:101E9000FA68244B1340FB603B681A683B68DB68B8
:101EA0001A433B685B691A433B689B691A433B686A
:101EB000DB691A433B681B6A1A433B685B6A1A4337
:101EC0003B689B6A1A433B685B6B1A433B689B6B9E
:101ED0001343FA681343FB607B68FA681A607B68F7
:101EE0005B69FB60FB6823F00703FB603B68DA6A11
:101EF0003B681B6B1343FA681343FB607B68FA680B
:101F00005A613B681A697B685A603B685A687B680B
:101F10009A603B689A687B68DA6000BF1437BD46F8
:101F200080BC70473F801CF080B483B000AF786005
:101F30000B46FB70FB78002B06D07B681B6843F0D8
:101F400001027B681A6005E07B681B6823F00102D0
:101F50007B681A6000BF0C37BD4680BC704700BF6D
:101F600080B483B000AF7860054A7B6843F0BF63FC
:101F700043F40033D36000BF0C37BD4680BC7047CC
:101F800000ED00E080B485B000AF78600023FB7303
:101F90000023BB730F237B737B68DB78002B38D067
:101FA000264BDB68DB4303F4E0631B0AFB73FB7B1C
:101FB000C3F10403BB737A7BFB7B42FA03F37B73AD
:101FC0007B685B781A46BB7B02FA03F3FB737B6882
:101FD0009A787B7B1340DAB2FB7B1343FB73FB7B6A
:101FE0001B01FB73164A7B681B781344FA7B83F84A
:101FF0000023134A7B681B785B09DBB218467B68B9
:102000001B7803F01F03012101FA03F342F820308B
:102010000FE00B497B681B785B09DBB218467B68D5
:102020001B7803F01F0301229A4000F1200341F8BE
:10203000232000BF1437BD4680BC704700ED00E090
:1020400000E100E080B485B000AF78603960002323
:10205000FB817B681B88FB817B68284A934213D0F5
:102060007B68274A93420FD07B68B3F1804F0BD037
:102070007B68244A934207D07B68234A934203D06B
:102080007B68224A934208D1FB8923F07003FB81CD
:102090003B685A88FB891343FB817B681C4A934247
:1020A0000CD07B681B4A934208D0FB8923F4407311
:1020B000FB813B681A89FB891343FB817B68FA89A2
:1020C0001A803B685A687B68DA623B681A887B68CA
:1020D0001A857B68094A934203D07B68084A934279
:1020E00004D13B689B7A9AB27B681A867B6801228E
:1020F0009A8200BF1437BD4680BC70470000014083
:10210000000401400004004000080040000C0040B2
:10211000001000400014004080B483B000AF78602D
:102120000B46FB70FB78002B08D07B681B889BB2AA
:1021300043F001039AB27B681A8007E07B681B8832
:102140009BB223F001039AB27B681A8000BF0C3760
:10215000BD4680BC704700BF80B485B000AF7860DA
:10216000396000237B810023FB810023BB817B68D6
:102170001B8C9BB223F001039AB27B681A847B68A4
:102180001B8CFB817B689B88BB817B681B8B7B8165
:102190007B8923F070037B817B8923F003037B81A0
:1021A0003B681A887B8913437B81FB8923F00203F8
:1021B000FB813B689A89FB891343FB813B685A8802
:1021C000FB891343FB817B681E4A934203D07B68E3
:1021D0001D4A934223D1FB8923F00803FB813B680E
:1021E000DA89FB891343FB81FB8923F00403FB811C
:1021F0003B689A88FB891343FB81BB8923F4807376
:10220000BB81BB8923F40073BB813B681A8ABB89FD
:102210001343BB813B685A8ABB891343BB817B68EC
:10222000BA899A807B687A891A833B689A687B6846
:102230005A637B68FA891A8400BF1437BD4680BC94
:10224000704700BF000001400004014080B485B029
:1022500000AF7860396000237B810023FB8100237D
:10226000BB817B681B8C9BB223F010039AB27B6806
:102270001A847B681B8CFB817B689B88BB817B6895
:102280001B8B7B817B8923F4E0437B817B8923F457
:1022900040737B813B681B881B029AB27B89134386
:1022A0007B81FB8923F02003FB813B689B891B0119
:1022B0009AB2FB891343FB813B685B881B019AB28E
:1022C000FB891343FB817B68224A934203D07B68DE
:1022D000214A93422BD1FB8923F08003FB813B6889
:1022E000DB891B019AB2FB891343FB81FB8923F035
:1022F0004003FB813B689B881B019AB2FB89134317
:10230000FB81BB8923F48063BB81BB8923F4006319
:10231000BB813B681B8A9B009AB2BB891343BB817C
:102320003B685B8A9B009AB2BB891343BB817B6885
:10233000BA899A807B687A891A833B689A687B6835
:102340009A637B68FA891A8400BF1437BD4680BC43
:10235000704700BF000001400004014080B485B018
:1023600000AF7860396000237B810023FB8100236C
:10237000BB817B681B8C9BB223F480739AB27B6811
:102380001A847B681B8CFB817B689B88BB817B6884
:102390009B8B7B817B8923F070037B817B8923F07E
:1023A00003037B813B681A887B8913437B81FB890C
:1023B00023F40073FB813B689B891B029AB2FB8963
:1023C0001343FB813B685B881B029AB2FB89134372
:1023D000FB817B68224A934203D07B68214A934267
:1023E0002BD1FB8923F40063FB813B68DB891B0253
:1023F0009AB2FB891343FB81FB8923F48063FB8141
:102400003B689B881B029AB2FB891343FB81BB8903
:1024100023F48053BB81BB8923F40053BB813B6809
:102420001B8A1B019AB2BB891343BB813B685B8A41
:102430001B019AB2BB891343BB817B68BA899A801E
:102440007B687A899A833B689A687B68DA637B68E1
:10245000FA891A8400BF1437BD4680BC704700BF9C
:10246000000001400004014080B485B000AF7860F6
:1024700039600023BB8100237B810023FB817B68C3
:102480001B8C9BB223F480539AB27B681A847B68BE
:102490001B8C7B817B689B88FB817B689B8BBB81D2
:1024A000BB8923F4E043BB81BB8923F44073BB8128
:1024B0003B681B881B029AB2BB891343BB817B8993
:1024C00023F400537B813B689B891B039AB27B8971
:1024D00013437B813B685B881B039AB27B89134360
:1024E0007B817B68114A934203D07B68104A9342F8
:1024F0000AD1FB8923F48043FB813B681B8A9B0143
:102500009AB2FB891343FB817B68FA899A807B68C6
:10251000BA899A833B689A687B681A647B687A896F
:102520001A8400BF1437BD4680BC704700000140CC
:102530000004014080B485B000AF78600B467B801A
:102540000023FB817B681B8BFB81FB8923F0080345
:10255000FB81FA897B881343FB817B68FA891A83A4
:1025600000BF1437BD4680BC704700BF80B485B043
:1025700000AF78600B467B800023FB817B681B8B60
:10258000FB81FB8923F40063FB817B881B029AB2E9
:10259000FB891343FB817B68FA891A8300BF1437D8
:1025A000BD4680BC704700BF80B485B000AF786086
:1025B0000B467B800023FB817B689B8BFB81FB8927
:1025C00023F00803FB81FA897B881343FB817B6836
:1025D000FA899A8300BF1437BD4680BC704700BF9C
:1025E00080B485B000AF78600B467B800023FB8110
:1025F0007B689B8BFB81FB8923F40063FB817B88D9
:102600001B029AB2FB891343FB817B68FA899A8388
:1026100000BF1437BD4680BC704700BF80B582B094
:1026200000AF786039603B681B88002B0FD13B6896
:1026300059883B689A883B681B89786800F020F9C4
:102640003B68DB881946786800F048F836E03B685C
:102650001B88042B0FD13B6859883B689A883B68DC
:102660001B89786800F04EF93B68DB88194678686A
:1026700000F050F822E03B681B88082B0FD13B6824
:1026800059883B689A883B681B89786800F086F90E
:102690003B68DB881946786800F05AF80EE03B6822
:1026A00059883B689A883B681B89786800F0BEF9B6
:1026B0003B68DB881946786800F066F800BF083789
:1026C000BD4680BD80B483B000AF78607B689B6BF3
:1026D00018460C37BD4680BC704700BF80B483B03D
:1026E00000AF78600B467B807B681B8B9BB223F02E
:1026F0000C039AB27B681A837B681B8B9AB27B8827
:1027000013439AB27B681A8300BF0C37BD4680BC66
:10271000704700BF80B483B000AF78600B467B8009
:102720007B681B8B9BB223F440639AB27B681A834D
:102730007B681B8B9AB27B881B029BB213439AB2B5
:102740007B681A8300BF0C37BD4680BC704700BF52
:1027500080B483B000AF78600B467B807B689B8B36
:102760009BB223F00C039AB27B689A837B689B8BA5
:102770009AB27B8813439AB27B689A8300BF0C3766
:10278000BD4680BC704700BF80B483B000AF7860A6
:102790000B467B807B689B8B9BB223F440639AB291
:1027A0007B689A837B689B8B9AB27B881B029BB267
:1027B00013439AB27B689A8300BF0C37BD4680BC36
:1027C000704700BF80B483B000AF78600B467B8059
:1027D00013467B707B78002B08D07B689B899AB26C
:1027E0007B8813439AB27B689A8109E07B689B8956
:1027F0009AB27B88DB439BB213409AB27B689A8182
:1028000000BF0C37BD4680BC704700BF80B485B0A8
:1028100000AF78600B467B800023FB730023BB81F5
:1028200000237B817B681B8A9AB27B881340BB8123
:102830007B689B899AB27B8813407B81BB89002B84
:1028400005D07B89002B02D00123FB7301E000231C
:10285000FB73FB7B18461437BD4680BC704700BF36
:1028600080B483B000AF78600B467B807B88DB430D
:102870009AB27B681A8200BF0C37BD4680BC704795
:1028800080B487B000AFF860084611461A46034688
:102890007B810B463B811346FB800023FB82002398
:1028A000BB82FB681B8C9BB223F001039AB2FB68CE
:1028B0001A84FB681B8BFB82FB681B8CBB82FB8A28
:1028C00023F0F303FB82FB881B019AB23B8913437D
:1028D0009AB2FB8A1343FB82BB8A23F00A03BB82B2
:1028E0007A89BB8A13439BB243F00103BB82FB6826
:1028F000FA8A1A83FB68BA8A1A8400BF1C37BD465D
:1029000080BC704780B487B000AFF86008461146BD
:102910001A4603467B810B463B811346FB8000230E
:10292000FB820023BB8200237B82FB681B8C9BB253
:1029300023F010039AB2FB681A84FB681B8BFB829E
:10294000FB681B8CBB827B891B017B82FB8A23F487
:1029500040731B051B0DFB82FB881B039AB2FB8A8D
:102960001343FB823B891B029AB2FB8A1343FB820F
:10297000BB8A23F0A003BB827A8ABB8A13439BB233
:1029800043F01003BB82FB68FA8A1A83FB68BA8A99
:102990001A8400BF1C37BD4680BC704780B487B026
:1029A00000AFF860084611461A4603467B810B4685
:1029B0003B811346FB800023FB820023BB82002364
:1029C0007B82FB681B8C9BB223F480739AB2FB68FA
:1029D0001A84FB689B8BFB82FB681B8CBB827B8908
:1029E0001B027B82FB8A23F0F303FB82FB881B0123
:1029F0009AB23B8913439AB2FB8A1343FB82BB8A88
:102A000023F42063BB827A8ABB8A13439BB243F4CC
:102A10008073BB82FB68FA8A9A83FB68BA8A1A843D
:102A200000BF1C37BD4680BC704700BF80B487B074
:102A300000AFF860084611461A4603467B810B46F4
:102A40003B811346FB800023FB820023BB820023D3
:102A50007B82FB681B8C9BB223F480539AB2FB6889
:102A60001A84FB689B8BFB82FB681B8CBB827B8977
:102A70001B037B82FB8A23F440731B051B0DFB8227
:102A80003B891B029AB2FB8A1343FB82FB881B0320
:102A90009AB2FB8A1343FB82BB8A23F400535B0484
:102AA0005B0CBB827A8ABB8A13439BB243F480538C
:102AB000BB82FB68FA8A9A83FB68BA8A1A8400BFD1
:102AC0001C37BD4680BC704781F0004102E000BF6A
:102AD00083F0004330B54FEA41044FEA430594EADE
:102AE000050F08BF90EA020F1FBF54EA000C55EA19
:102AF000020C7FEA645C7FEA655C00F0E2804FEAEA
:102B00005454D4EB5555B8BF6D420CDD2C4480EACB
:102B1000020281EA030382EA000083EA010180EAFB
:102B2000020281EA0303362D88BF30BD11F0004F49
:102B30004FEA01314FF4801C4CEA113102D040427F
:102B400061EB410113F0004F4FEA03334CEA1333BA
:102B500002D0524263EB430394EA050F00F0A780D2
:102B6000A4F10104D5F1200E0DDB02FA0EFC22FACD
:102B700005F2801841F1000103FA0EF2801843FAC1
:102B800005F359410EE0A5F120050EF1200E012AB2
:102B900003FA0EFC28BF4CF0020C43FA05F3C018F0
:102BA00051EBE37101F0004507D54FF0000EDCF169
:102BB000000C7EEB00006EEB0101B1F5801F1BD312
:102BC000B1F5001F0CD349085FEA30004FEA3C0C16
:102BD00004F101044FEA445212F5800F80F09A800C
:102BE000BCF1004F08BF5FEA500C50F1000041EB10
:102BF000045141EA050130BD5FEA4C0C404141EB14
:102C0000010111F4801FA4F10104E9D191F0000F3A
:102C100004BF01460020B1FA81F308BF2033A3F1BD
:102C20000B03B3F120020CDA0C3208DD02F1140CB4
:102C3000C2F10C0201FA0CF021FA02F10CE002F1EF
:102C40001402D8BFC2F1200C01FA02F120FA0CFCE8
:102C5000DCBF41EA0C019040E41AA2BF01EB045131
:102C6000294330BD6FEA04041F3C1CDA0C340EDC2F
:102C700004F11404C4F1200220FA04F001FA02F372
:102C800040EA030021FA04F345EA030130BDC4F130
:102C90000C04C4F1200220FA02F001FA04F340EA25
:102CA0000300294630BD21FA04F0294630BD94F0D6
:102CB000000F83F4801306BF81F480110134013DBD
:102CC0004EE77FEA645C18BF7FEA655C29D094EA2E
:102CD000050F08BF90EA020F05D054EA000C04BFAC
:102CE0001946104630BD91EA030F1EBF0021002097
:102CF00030BD5FEA545C05D14000494128BF41F036
:102D0000004130BD14F580043CBF01F5801130BD99
:102D100001F0004545F0FE4141F470014FF0000024
:102D200030BD7FEA645C1ABF194610467FEA655CD5
:102D30001CBF0B46024650EA013406BF52EA033577
:102D400091EA030F41F4002130BD00BF90F0000F65
:102D500004BF0021704730B54FF4806404F13204A1
:102D60004FF000054FF0000150E700BF90F0000F5A
:102D700004BF0021704730B54FF4806404F1320481
:102D800010F0004548BF40424FF000013EE700BF51
:102D900042004FEAE2014FEA31014FEA02701FBFE1
:102DA00012F07F4393F07F4F81F06051704792F0B3
:102DB000000F14BF93F07F4F704730B54FF460742D
:102DC00001F0004521F0004120E700BF50EA010278
:102DD00008BF704730B54FF000050AE050EA010225
:102DE00008BF704730B511F0004502D5404261EB95
:102DF00041014FF4806404F132045FEA915C3FF4D6
:102E0000DCAE4FF003025FEADC0C18BF03325FEA6E
:102E1000DC0C18BF033202EBDC02C2F1200300FA23
:102E200003FC20FA02F001FA03FE40EA0E0021FA48
:102E300002F11444C1E600BF70B54FF0FF0C4CF432
:102E4000E06C1CEA11541DBF1CEA135594EA0C0FE8
:102E500095EA0C0F00F0DEF82C4481EA030621EA23
:102E60004C5123EA4C5350EA013518BF52EA03355E
:102E700041F4801143F4801338D0A0FB02CE4FF010
:102E80000005E1FB02E506F00042E0FB03E54FF040
:102E90000006E1FB03569CF0000F18BF4EF0010E38
:102EA000A4F1FF04B6F5007F64F5407404D25FEA34
:102EB0004E0E6D4146EB060642EAC62141EA5551E7
:102EC0004FEAC52040EA5E504FEACE2EB4F1FD0C29
:102ED00088BFBCF5E06F1ED8BEF1004F08BF5FEAA7
:102EE000500E50F1000041EB045170BD06F0004659
:102EF00046EA010140EA020081EA0301B4EB5C0406
:102F0000C2BFD4EB0C0541EA045170BD41F48011FD
:102F10004FF0000E013C00F3AB8014F1360FDEBF22
:102F2000002001F0004170BDC4F10004203C35DAFE
:102F30000C341BDC04F11404C4F1200500FA05F381
:102F400020FA04F001FA05F240EA020001F0004222
:102F500021F0004110EBD37021FA04F642EB060198
:102F60005EEA430E08BF20EAD37070BDC4F10C04C2
:102F7000C4F1200500FA04F320FA05F001FA04F286
:102F800040EA020001F0004110EBD37041F1000172
:102F90005EEA430E08BF20EAD37070BDC4F120057D
:102FA00000FA05F24EEA020E20FA04F301FA05F2E5
:102FB00043EA020321FA04F001F0004121FA04F28D
:102FC00020EA020000EBD3705EEA430E08BF20EA5D
:102FD000D37070BD94F0000F0FD101F00046400097
:102FE00041EB010111F4801F08BF013CF7D041EA19
:102FF000060195F0000F18BF704703F0004652001D
:1030000043EB030313F4801F08BF013DF7D043EAED
:103010000603704794EA0C0F0CEA135518BF95EAA3
:103020000C0F0CD050EA410618BF52EA4306D1D12A
:1030300081EA030101F000414FF0000070BD50EA49
:10304000410606BF1046194652EA430619D094EAD3
:103050000C0F02D150EA013613D195EA0C0F05D1BD
:1030600052EA03361CBF104619460AD181EA030111
:1030700001F0004141F0FE4141F470014FF00000C9
:1030800070BD41F0FE4141F4780170BD70B54FF064
:10309000FF0C4CF4E06C1CEA11541DBF1CEA1355E4
:1030A00094EA0C0F95EA0C0F00F0A7F8A4EB0504C6
:1030B00081EA030E52EA03354FEA013100F08880BD
:1030C0004FEA03334FF0805545EA131343EA126386
:1030D0004FEA022245EA111545EA10654FEA00263B
:1030E0000EF000419D4208BF964244F1FD0404F5F4
:1030F000407402D25B084FEA3202B61A65EB030550
:103100005B084FEA32024FF480104FF4002CB6EB0C
:10311000020E75EB030E22BFB61A754640EA0C008C
:103120005B084FEA3202B6EB020E75EB030E22BFCC
:10313000B61A754640EA5C005B084FEA3202B6EB0D
:10314000020E75EB030E22BFB61A754640EA9C00CC
:103150005B084FEA3202B6EB020E75EB030E22BF9C
:10316000B61A754640EADC0055EA060E18D04FEA5A
:10317000051545EA16754FEA06164FEAC30343EAFA
:1031800052734FEAC2025FEA1C1CC0D111F4801FC7
:103190000BD141EA00014FF000004FF0004CB6E7C0
:1031A00011F4801F04BF01430020B4F1FD0C88BF5F
:1031B000BCF5E06F3FF6AFAEB5EB030C04BFB6EB6A
:1031C000020C5FEA500C50F1000041EB045170BD5D
:1031D0000EF0004E4EEA113114EB5C04C2BFD4EB8A
:1031E0000C0541EA045170BD41F480114FF0000E0E
:1031F000013C90E645EA060E8DE60CEA135594EA8A
:103200000C0F08BF95EA0C0F3FF43BAF94EA0C0F8C
:103210000AD150EA01347FF434AF95EA0C0F7FF401
:1032200025AF104619462CE795EA0C0F06D152EA55
:1032300003353FF4FDAE1046194622E750EA410639
:1032400018BF52EA43067FF4C5AE50EA41047FF44A
:103250000DAF52EA43057FF4EBAE12E74A0011D2FC
:1032600012F5001211D20DD56FF47873B3EB6252E0
:103270000ED44FEAC12343F0004343EA505323FAEC
:1032800002F070474FF00000704750EA013002D161
:103290004FF0FF3070474FF00000704752494646EC
:1032A00096D3000057415645666D7420100000000B
:1032B00001000200803E0000007D000002000800C6
:1032C0004C4953541A000000494E464F4953465446
:1032D0000E0000004C61766635372E37322E3130C5
:1032E00031006461746150D30000A983AB8BAB8B58
:1032F000AD85AB85A7879D899791979B9597999168
:103300009B919F979B959997999D999F9BA7A1B0FA
:10331000A3B49FB69FB49DB09BAD9BAD99A799A157
:1033200095978B8983857E837880707C6E7E727E94
:103330007681728372877687788078787674746EF7
:1033400072666E626A60646064686A706C726E76DF
:103350007883808D818F808F819387938D8D8B85EE
:1033600087838B8987898589838581878397809DDA
:10337000839F87A1899B89978B95878D8585858379
:10338000838580817E7E7C7E80837E85808D839711
:103390008B9F91A1979D979395858F7C897E85853D
:1033A00083858581878089808D8393899B8B9D8D83
:1033B0009B8F9F8BA1879D839581937E91808F7E2C
:1033C000897E858381898589898B8F8F8F93899366
:1033D00089938B918B8D878B838B838B858D878D49
:1033E0008787838789918B958F958D9391959995F3
:1033F0009F959F939B8F978F959193918D8F838DA1
:103400007E8F7E8F7C8B7C87768176807C7E8176BA
:10341000816E806A7E6C7C6E746E706A6A6C667097
:103420006476667C687A6E787476786C7866766492
:103430007A5E7C5A7E5C7E5C7A5A725E70667068D8
:1034400072666E646C626C5C6A54644F644F605464
:103450005E566054665666566456625C60605C6098
:10346000585A565450504D504B4F4749454D474F71
:103470004B524F525256525C505A565C5A625C64E0
:103480005860585E5660505C4F5C4B5A455A435AE0
:10349000455849584D5A4D5E4D624F604F605466D5
:1034A0005A685862585C565C545654565658586080
:1034B000566A566E5A6E6276647A687C6E80708048
:1034C0006C7A6A726A746E7A6E7E727C767A7C7EB0
:1034D0008081818B85938B978F9593939593958F0F
:1034E000918B938D919391939B959B979999999794
:1034F0009F95A395A599A59DA59FA39BA1959B91FC
:103500009791939593959391938B95919795979385
:103510009B93A197A799A799A597A1959D939993F7
:1035200097939591978B998B958B938995899F8F7D
:10353000A395A59DAD9FB29DAD97A38F9D8D9D93A6
:103540009B979999999B979D979B959B999B9599EB
:10355000999999979D919B8D93878F838B80897E75
:10356000877E81807C837E8780837E7C7A7C768068
:10357000747E7676766E766A746C746C726C706635
:103580006A64686660685E6E5C725C705E706670CD
:10359000686E687066706C746E76727478747C761F
:1035A0007C787C7E7E8580918199819B83998595AD
:1035B0008593818F808D818F808F818F819183937F
:1035C00087938F959399939D979F979B93978B97AD
:1035D000839785978B938D8F8D918D8F8F8F9393FD
:1035E00095979D9BA19FA7A3A59DA3959D8D9B8B23
:1035F00099899587938B8F8D898989838B858D8711
:103600008F89919197999795958F8F8D898D8789BE
:103610008581817E7E7E808180838089858F8F9762
:10362000979F9FA5A1A3A3A1A39D9F95998B9583E8
:103630008F85898B8B8B8D8F8F979399979B9FA36A
:10364000A1A5A19F97998B91818B7C85787C767AB7
:10365000787878767C7A7E7E7E8180858387858B7C
:10366000838F818F808F7A8D7A877A817C7C7C743E
:103670007C6A7A60765E7A5E7E6078627662766474
:10368000726670666C646C646C5E6C566A506847F7
:103690006641664168436C4B6C506A52644F644D9E
:1036A0006450644F5C4954434F4549454947494735
:1036B0004F45544B58525A565E585E585C505849C4
:1036C000564B544F52504B524754455A435E4364F5
:1036D00045684B6C506A52645262505E505C505A5E
:1036E0004D564B564D5C5062506250624F66526C64
:1036F000546C546858645E605E6060625E666468C4
:10370000686C6A706A706A6C6C706E78747C7883AE
:103710007C857C857E85808383838983897E838085
:10372000858389858D898D8F939799A59FA99FA55D
:103730009D9F979991938F918B918B938795879765
:1037400085958D9B95A599A79DA9A3AFA5ADA3A987
:103750009BA5959D919791959199919B8F9D979FF1
:103760009F9BA59FA7A1A7A1A7A1A59BA1919B8B6B
:103770009B8F998B9789958B958F99919B939F9709
:10378000A39BA99DAFA1B0A9AFADA9ADA5A59F9BD6
:103790009B959991958D918B8D838B7E8981898560
:1037A00087898F8D97919B91958B93898F83897A48
:1037B00083707C6E726A6A62685E666066646E6A56
:1037C000726E746E76727476726E726870646E6405
:1037D0006A6266626462605C625A646068626E6AB1
:1037E000786C7C6A766E767276787C838089808944
:1037F0007E897E857A8378807A7C807E81818585CA
:103800008089819387958B918D958F99939D919FB9
:103810008D938991879589978B97919599959F9786
:10382000A399A79BAD9BAF9BAF99AB99A795A18F90
:103830009D8B978993899189938F93938F938F9180
:10384000958D9B899F87A18D9D91938D8B8B87896A
:1038500087898589838B818D808B818D808F8591F0
:1038600087938B978F998F998F978F938D938B9148
:10387000898D8B8F8B9189958597859D879D89995A
:103880008F9B91A193A5919F8B958791838D819318
:1038900081978393838F818D8589878385838789AA
:1038A000878B878B85898789858B838D808D808B9E
:1038B00080877E80787A74726C686A5E6A5E6864FB
:1038C0006266606862646264666468626A5E6A54C2
:1038D000664D644B60475E455A4356455447544BCA
:1038E000564B56475849584D5A495C4762456243C2
:1038F0005E415A41564152415649544B504B4F43F9
:103900004F434F49524F54505454585A5C5E625E74
:10391000645A62525C565A5A565658544F504B4D40
:10392000454D435249584D5C545E5A625A625C5C44
:103930005662586256665266506049624D664762EA
:103940005066566A5E66626A6C686E66725A766225
:103950006A646C66726C6C6E767C747876767C7A4F
:103960007A7A857A8B8391839781918B97899D97BA
:103970009F9593979D9D8F9F91A191A78DA18B9DC1
:103980008DA399AB89AFB0B6ADB2AFB4ADB4B4B29C
:10399000BCB8A9ADA7A79DA995A3959D9DA79B9FE1
:1039A00097A1ABADA5A9AFAFABA9B6B2B4ADA1A776
:1039B000A5979DA9999D85939D95999D9199A59967
:1039C0009B93B097A99BBEADB2B0B4B2ABAFB8AD4C
:1039D000A7B2A9A5AFA19FA3B0A1918BAF878F87F5
:1039E000997A8581917E8393898D97937481958F40
:1039F000838B897A787E7A6E70766C746468727064
:103A00005C62726E767C687C807E6C80836A5E7499
:103A10007A746A7870706A7C6E6E66746072816A9D
:103A20005C787A746A74807E6C816A877A83668532
:103A30007E7A6A7C767C787878666C68816A74684D
:103A40006E687C666676706E857C7C8180858D85EF
:103A50008B8F8F8D958B9F858B859B8F938F8D976C
:103A6000978B8D99899BA19F97A1978FA9939787F2
:103A70008F819B85918589898D8B8F8D918D89858E
:103A80009180977E937C998D9989AB8097859F7E55
:103A90009B8799838B939993879983A3879D919F04
:103AA0007CA3879B879D7E938195918F838F8F8940
:103AB000877A8F81877C837E788074767874708132
:103AC000708080897A85838D8D81817E95898770CC
:103AD00091818174817C837C7085749174917A91D9
:103AE000769381A17699879F97A189A791A791A5A0
:103AF00091A5879D8FA1959783958F858385897AD9
:103B000076727E727C68646C856E74686C6E767C8E
:103B10007A787E7A646E746C6A6A5A6062565A4B1E
:103B20004D4D5E475049564F56495A415A4D584996
:103B30005A525A50544F4F494D4F505450474F4B83
:103B400049414F4558474D4554414F47584F5450B0
:103B50004F5454544D5A545254564F58565650522E
:103B60005A56494D4B4D475045504D5C526C54662A
:103B700056646068606868665E6068625E5E625C2B
:103B80005C5C5E62626E626E647466746A726A6CB9
:103B900064726C6A6C6E6A706E6A6C6874606E6275
:103BA000766072607C64786C787281767E727E6EEC
:103BB0007E78857C85878D818B808B898F8D99938D
:103BC0009DA39DA39B9F979F99A595A395A193A323
:103BD0009FA597A199A5A3A99BA19B9B9B99A1A5F3
:103BE000A5A7A5A7A1A9A1A3A99FA79FA199A799A7
:103BF000A395A195A5939F8FA99BABA5B0AFA7B4A3
:103C0000AFB0AFBAAFBEABBEABBEADBEA5BEA7B484
:103C1000A5B6A9B0A7ABABA7B2A9AFA3B09BAD9710
:103C2000A1939789918087817E7C787C747C787A57
:103C30007C707E6E837689788574806C816C7E6AF8
:103C4000746A747072786C786A786C7C6E80707A42
:103C5000767E7C817C7C7A7C7E837883727E707EAB
:103C6000747870726A7468786872686C646C6C6E70
:103C7000707672747278767C78837A877C8978899A
:103C80007E8B7C8D7A877483748076838083808733
:103C9000858B8991939F979D959B9395938F8F8DFE
:103CA00089878380877E8B7A8B769174957A9D80C5
:103CB000A1809D819D83A1809F7E99809581897A35
:103CC000897C8B818B818D8195859D8B9B8D9B893B
:103CD0009F939B97998D978D978B978B8B93919DA6
:103CE00095A191958B918795858F818F8393899BE2
:103CF00089998D9191938D8F838D7E857C837A8038
:103D0000747E747C787C7676787881838387877EEE
:103D100087768B7885788378837A8381817A7C78BB
:103D20007A7A787C7A818391859B859F879D899B10
:103D30008B97858F80897C897C877A8174837A8749
:103D40007E85808380857A8576806E7C7074706EC7
:103D50006C6C6A6C6A6A6A62665A64526054605A31
:103D600062626068606E5C6E5C6E5E6E606E626EFB
:103D7000606C566854605256525454545254505ABF
:103D8000565A58565850584D584B5A4D564D504704
:103D900052434B414341434145414B414D504F56A6
:103DA0005256585A5C5C585A565452504D504B58C3
:103DB000495E4B624D685876607E667C64766470BE
:103DC0006270646C6862625E626060646266625EB9
:103DD000665C6C5E72627062766A7C7280748074FB
:103DE0007E727A6C7C6E7A70767270766E7C74807D
:103DF00078817C807E818389838B85858B8997936D
:103E00009F979F9B9997918F8D8B878B83878387B4
:103E100087898D8D95939B9599959D9B9F9D9F9748
:103E2000A18F9F899989918D8D8D8D8F919195917C
:103E30009F9BA9A5ADA9B2ADB8B4BCB6B8AFB4AF9D
:103E4000B0AFAFADB0AFB4B8B6B8B8B6B8B8BAB630
:103E5000BAB2B8B2B6B6B4B2B0ABAFA5AFA9A9AD5D
:103E6000A1A59DA59B9F9193898F85878581837E41
:103E700080787E78807883728370836E7C6E746CB9
:103E8000727072726E6C6A6C687468726C726C724A
:103E90006E746E786C766E76707A747C6E7C667CEE
:103EA000647A6478667A687C6A7C6C806C857083DE
:103EB0007481767C747A727C6A7C6A7E6E8370858B
:103EC0007287789180938391859387938593859565
:103ED000899D899F89A38BAB89AF87AD81A17E998D
:103EE00085998B998F93918F8F8D8F8995879981E4
:103EF0009B7A997A977C9780957C95789376917444
:103F00009172957297709372977A9D859D859D8524
:103F10009B879D8B998993858B838B83938D9797B3
:103F2000979B97A199A399A1999D9397898B838535
:103F300080857E807E7E807E807E83808D808D7C6D
:103F40008F7C8B8087838587838580837C83767E47
:103F5000747C727C6E7A72857C8D858B8D878D8961
:103F60008B8B8B89898B858B838780877A857680FD
:103F7000767A76767670786E7E6C816A876C8970D8
:103F80008776877E897E817A7872746C6E64685ACF
:103F9000645666586C5E706070627068726C7472A1
:103FA000747872786E72687262705C665C5C5C5881
:103FB000605A645A6652685468586862686A686EE3
:103FC000626C5E6658665664545E565E5460525823
:103FD0005652584F5849584D5850565454565258A6
:103FE000565C54605460505A4D544D504D504B4D9A
:103FF0004D494D4D4D56505E526254665668546A56
:1040000054665464586058625A665E6464606A60BC
:10401000685E6862686A6E72707A727A747A7A7EA2
:10402000787E787A78767C76807A837C83788378D9
:10403000837C83838387818F8593839983A187A7DB
:104040008DAB91AB95AB99A5999D959591918B8DE4
:10405000878D838B818D808D7E8B818D878B8985EC
:104060008D8395879D8BA189A1839B80957E93806D
:104070008F838D858D899393959B9B99A59DB2A5E3
:10408000BCA7BEA7BEA9BEB4BEBCBEBABCB8B8B6BB
:10409000B2B0B0ABAFA5AD9FAD9BAB9DB0A1B4A18D
:1040A000BA9FBC9FB69BB08FA98BA1879985918041
:1040B0008D808780837C7C7C7E80808183818581EC
:1040C0008580817A817C807E7A7A72786E7A6E7C45
:1040D0006C76686C64646464646666666A646C6268
:1040E0006C5C665A665C6864666A64726276607468
:1040F0006270606E626C66706E7470727272747AE6
:104100007685788D7A91819987A387A3879F8597F4
:10411000838F8397879B899D8D9D8F998F978F998B
:104120008F99939D99A59FAB9FABA3AB9FA59999A1
:1041300099959B999D979F919B91958B918B938B33
:1041400095899387958B95939591958B978597876F
:104150009B899F85A3819F7A99768F7C8B838B8F98
:104160008B978B99879789958B9789958991898F5B
:104170008F8991858D7E837A807E7E837C837C8B04
:104180007C958091858F8B8B898B898D8B8B8D898D
:104190008D85897A80747E7C7E817E85818F8593F2
:1041A00087958B9B8FA1919F959D95A1959B918FB5
:1041B000878580807C7C767476727478747A747665
:1041C00076747C707C687A6A7E687E607C587654EF
:1041D0007052664F604B5A4D564F544D544B5A5087
:1041E0005E565E5A64626C62726274646E60665C93
:1041F000625C605C5A5C56605460545A5458565421
:1042000058505A545E5A6058625A605860505E5016
:104210005A52584D5C4D5E52605C60605A5E566208
:10422000586C5C6E5C685C665A6456625660545C9E
:10423000505C4D624D684D644D604B5C4D58525A18
:10424000585A5C565E5860586456665C625C5C5AAC
:104250005C605E605C5A58565854585C606668688A
:10426000746E7A6E786A7A707A7A788078837A89CE
:104270007A877A857E83807E818089898D95919BDE
:104280008F998995878F89958B9B899B8B9D91A50C
:1042900097A797A795A395A395A797A595A1939B56
:1042A00091939193939597999DA79FAD9DA59FA15C
:1042B0009FA19D9B9D9B9F9BA599A799A599A5951E
:1042C000A997AD9FADABB0B4BABEBCBEBCB8BAAFD7
:1042D000B8A9B6A5B8A3BCA1BC9BBC9BB69BB09B20
:1042E000AD9DAB9FA79FA19DA1979F939F8DA38BF2
:1042F000A78DA58BA1879B818F788570816E807437
:104300007C787A7A7E7E817E837C857E85838589B2
:10431000878B83857C7E707668705E685868566A85
:104320005A6C5E6E626C66686C706C746A72686AF5
:104330006664645E645A685A6A606866646E64782B
:10434000687A6876687266726874707E78837C8733
:104350007E877E87808D839181938197819B859DC8
:10436000859B8399859B899991979B9B9F97999111
:10437000958D958D95898D838B838B878F8D938D6F
:10438000978B9D8DA197A7A3AFABB0A9ABA7A5A312
:10439000A19D9D99979397959599959795979397A3
:1043A000919591938F938D918B8F898D898B89872F
:1043B00089878589838583858181807C80788072E7
:1043C0007E747E7881818387818B838D858D858FB7
:1043D0008795859787978591838983858181818159
:1043E0008385898D8B9389938D958D9787958593FB
:1043F00083958393838F8783897E8D7E8B80898548
:10440000878581817E7E76766E6C6E6C6E76747C2E
:10441000787E7876766C7664745E725A70586A58D4
:10442000665A6458645A605C5E5A5C5E6264646298
:10443000645E5E585E505E525E505C4B5A49564513
:104440005647584B5A4B5C56606264666464625CC3
:104450005E525E4D5E4B604D6250625060505E50E9
:104460005A5054524F544B58495C505E565E565801
:10447000565A5C605E64606460645C605A60586256
:1044800052644F6A4D6E4D6E506C54645A5C5E5A65
:10449000605660546252604D5A49584B584D5850BE
:1044A00058585E646672707A76767A747A767E741C
:1044B0007E7280707E707C707C787E807C837C8F46
:1044C0007C997A977E958193818F838D858B878D5B
:1044D0008D958F938F8F919391938D9189958599D8
:1044E000879B8B9D939D959F979F999F9FA3A7A720
:1044F000A7A7A7AFA7B4A7B8A1B4A1B6A1B8A1B008
:10450000A1AFA5B0ABAFB0B0B4B2B8B2BAB4BEB49C
:10451000BCB4BCB4B6ABB2A5B2ADB2ABB2A7B2A993
:10452000B0A3A797A18F9F899B819B819F85A38B18
:10453000A393A393A195A19B9D97998F998B958701
:104540008F808B7C857A80787E7C7C787E78807A80
:104550007E78787876807480727A70746C6A686617
:104560006064606266646E6E6E727078727C727A7D
:104570007278707C707C707872766E706C706C7013
:10458000666C5E685A645A66586A5A6C5C6C6070F5
:104590006C81768D7E8D838B87878580857E8181FA
:1045A0008183818780877E89808D808F83938B999B
:1045B0008F95939399939D8B9780937A917A8F7C23
:1045C0008D7C8D7E9185998B99919D9BA3A1A59FB3
:1045D000A799A995A78FA38BA38DA18DA191A1992F
:1045E0009D9F99A195A195A593A591A38FA18F9F1B
:1045F0008F998F918F8B8D8B8D8987838383818119
:10460000808381898189808F8191838B898B918B34
:104610008F858D898989878780877E8B7C8978873C
:10462000788B7C937E9785998999919B979B999795
:104630009793918D8B8583837E807A7C7A7C7E8034
:104640007E817C8078767A6C786676627462726835
:10465000746C72707476747A767A767C78807A83E9
:104660007A817A7C7672726C6C68645E5E5458549F
:1046700052544F564D5A4F5A505C546254645662CD
:10468000565A5A525E4B664D664D644B62495E49BE
:104690005A4B584F56525658565A565A5A605E60A0
:1046A0005E5E605A605860505E49584550454B49BF
:1046B000494F49544B584B5C4D5E4D605260585EBB
:1046C0005C585E545A525A525A525650544F56568B
:1046D000585C5C605E6462686668666466626A64B0
:1046E0006A5E6A5668546858686266686668686A8E
:1046F0006A6C70707276727676747C748376857864
:1047000083788178807A7C7A7678707A6C806C8510
:1047100074897A8B838D8B93939799999D93A193A9
:10472000A3979F959999959D8D9D899F859F87A119
:104730008DA593A79DA9A7A9ADABB0AFB2B0B4B0FA
:10474000B6B2B6B6B4BAB2BCB2BEB4BEB8BEBEBEE5
:10475000BEBEBEBEBEBEBEBEBEB6BEADBEABBEADB6
:10476000B8A9B2A9ADA3A799A5979F959D99999B23
:104770009B919F8DA38BA389A1879F899D899B8BEB
:1047800095878F898D8F8D91878D838780817C80A0
:10479000787A7A747E72807480787A7672746A78A5
:1047A0006A786670606E5C7264746A726E6A706653
:1047B0007268706A706A6E686C686A6E6A7468782B
:1047C000688068856A876883687A6A7A6A766A74B4
:1047D0006E76727674767478707A70837287748964
:1047E000748D748F788F7E8F808B8083817E8378A9
:1047F0008576857485708372837A858589918D9598
:10480000918F958D9B8F978F978B99879D879F878A
:104810009F8599839583918591879189938D9591B2
:1048200097919D93A191A18DA18B9D8595808D7E62
:10483000878083838089808D7E8F839589959197EA
:10484000979999999D9DA199A395A3939B8F8F8BE0
:10485000858B808B7E8B7A8F7491748F7A8F839106
:104860008B918F8F8F8B8F85958795899589918D6A
:104870008F93899581957E937C8D7C857E81807CCC
:10488000817883788372806C7A6876686E686C68E9
:104890006A666C6A6C706E74727676767A6E806E0A
:1048A000836E80687C6A786C6E6E667264745E7209
:1048B00058725470586C5C6E627268726C70707270
:1048C000727070686A66605E5A5C5A605860545CC8
:1048D000505A4D584F5654545A505C505E52625480
:1048E000665C645E605C606060625A5E545A4F56FB
:1048F0004B544B524B4D4B49474549494B504D54F6
:104900004F56525A56625C6A5E6A5E645E605C56DE
:104910005A4F5A4B584358415A435A495A5056587D
:10492000565E5C68647466786A807080787C817A90
:104930008574836C816A816C7E6C7A6E72706C7423
:104940006A7C6C837089728B7489748076767A74D1
:104950007C707C6C7E6E7E707E727C787A807A89C8
:104960007C917E95819B85A18DA395A3979D959321
:104970009791978F9589918B8D938D9B97A99DB8D2
:10498000A1BEA5BAABBAABB8ADB6B2B6B8B4BEAFFD
:10499000BEADBEADB8ADB2ADAFADAFB0B0B8B2BAEE
:1049A000B6BEBABEBEBEBEB8BEAFBEA7BCA3B6A1A1
:1049B000B29BAD99A5999D9B999F959D919B91992E
:1049C0009397958F978999859F89A18D9B898F80D2
:1049D000857880787C7C788074856E896E8B708910
:1049E00072817276726C726470627668786A746AC8
:1049F0006E6C6E726C786A7C66786472646C6268E5
:104A0000646468606A646A686A6A6A68686A687224
:104A10006A7A6A7E6A816A896C8D708D748B7683FE
:104A20007A807E81818B8597899F8BA18B9F899BC3
:104A30008B99899385898580837C837C877E8B7E17
:104A4000918095879589918B918F95939B9B9D9B49
:104A50009B979D939D919B8D9B899981957E937C3E
:104A600095809987998D958F95959797999999990B
:104A7000918F8D858B7A876E856A816C806E7E7250
:104A80007E74817C8B89939599A19DA79BA59BA5FD
:104A900099A195998F8D8983858183838589879352
:104AA0008799899F8BA58FAB8FAB93AB95A7979B6E
:104AB000959193878F81877C81767E7278727072F0
:104AC0007078747C767E7A807C817E81817E817430
:104AD000816A7E607A5C745A725C6A5C645E5E5E57
:104AE0005A645C6A647068766C7C6E78707072660A
:104AF0006E5A6A526650604F5A4F565258605A6CFE
:104B0000567050685A726476626E626A66686A6449
:104B1000665C645A685C685C665E64666470647453
:104B2000627264746472646A60625E5E5E5C5A5C47
:104B3000565A50544F504950475245564758475A75
:104B4000495C4F5C565E5C5C5C585E545E525E52E3
:104B50005A4F584B544B524D4F4F4D54505A565E2E
:104B60005C60625E64566A546A526A506854685661
:104B700068546C5C7266726E72727276727672765D
:104B80006E7472747270706C726C76727C7A807EE5
:104B900080818085838D878F898D858B83858085B6
:104BA0007A817C818087818D85938D9995A19BA940
:104BB0009FAFA1AFA1ADA1AB9DA59D9F9D9FA19FC3
:104BC0009F9D9D9BA1A1A3A3A3A5A5ABA9B4AFB88D
:104BD000AFB6B4BAB2B6B4B4B4ADB2A5B29DB295E4
:104BE000B293B493B291B091AF97AFA3ADA7B2B265
:104BF000B4B4B2B4B0ADAFA3AD99A991A78D9F875E
:104C000099839D879D8D9F979D9F9DA59DA79FA9FA
:104C10009DA9979D9593918B877E81787E787472FC
:104C200072726C706E766C7A708176897283748021
:104C3000767E788076787A78746E726A6E68706E36
:104C4000666C6670627266766C7C667C68806A8070
:104C50007083627876856E767072706A6C626E6848
:104C600064686070667E68856C8D729376918195BC
:104C7000858F878989858D838B7E8B788374857EEC
:104C8000878385898D918F99919B8F999399979718
:104C9000938B998D9785978593819789958B8D8532
:104CA00095939597999B8F8D9393999999999393B0
:104CB00099959591938D8F8B8F8F8F8B87838B8514
:104CC0008B898B8F838B898F8B938F958F958F9308
:104CD0009B939B8D978997899389959391918D91BA
:104CE00089918D958D97879391978183878B8985FE
:104CF0008D858D85857C8D838B838D83857C857E5D
:104D000087817E7A837A786C817276607E6880682B
:104D100078667A6C7A7483807A7A807E6C6A726E36
:104D2000726C645E5C546860665E66606864707431
:104D30006A70747C6E78727C70766E76666A5C5E81
:104D40005C5E50525858504F625A5C5258505C5CEE
:104D50007074646A686E6E786C7470746C6E605C8B
:104D6000645C726C5852605A5C565A5A646E56664D
:104D70005A6E667C546C5E7260705A66565858540F
:104D80004F454941584D414145494D5A414D506863
:104D900049625C744B5C5E6A565664585E49524187
:104DA00058415C4170587262645E5C5E6A765E7007
:104DB000586C5C68606860606260665E6E5E6A56D1
:104DC000806C7664685E7C7A8587898D7A83687664
:104DD00056686A787E8B78816E70706A918B817C60
:104DE00083817E8385938DA17E978BA789A77A97F0
:104DF0008FA38F9F9FAD8F9B8F959593A9A1A19B0B
:104E00009D9F9BA5A3B4A9BAA1AF9DAFADBEA1B014
:104E10008B99A9B0AFB09991B0A3BAA9BCADB2A11A
:104E2000BEABB8A9B8ADA79BB6A7AFA1A99DA999DC
:104E3000AB9BAB97A591AB99AB97BEA99F85BEB035
:104E40009B89AFA5978DA79D81789991999789871F
:104E50008F898F899389978D9D998081A3A7808160
:104E60009FA1787E74788987858070686662898959
:104E700083806A64766E8383747A707E72837481B1
:104E80007480767E6E6E787854526C64878141416E
:104E900072746A72768360726A8164807C936270D5
:104EA00050588F95646A6A705C5E6E6C6062748044
:104EB00066726A7891A3707C919587898D8B8D85B8
:104EC000A39980728070B2A37460AB9B857A959130
:104ED0009D9F9DA1838DA5ABA9AB8D8DB0B0938B0C
:104EE000BEAD8B7C9180AF9D8B7AA3938070BEB852
:104EF000898D838DABBC899B9DA5727C9BA3999961
:104F0000999578749B9387818581999B8D998F99C9
:104F100093A787A38B9D8BA793A3808793978B8B56
:104F2000ADA96E6EA9A97E728D89ADB66672899B98
:104F300083979DA55E629B9F666A95957A7A685C69
:104F4000A1956C58A18B8570857287838D89625A73
:104F5000A3A16C6674708583665A877A584B8B80E0
:104F60006E6072627E687C78706A41478B95626A77
:104F70007480414772746E764145707241419993D5
:104F8000564D58586A68817E4141817E565E566210
:104F900072766E6E565C6056707043476E6A6C6ACD
:104FA0004D4F83835C62707847437C725C58454107
:104FB0007C786C6C434354526A6A4D585C54585622
:104FC00041417E7E5A5E45456068414150624141A3
:104FD0004D4B8D8F414166644F47525241417C6633
:104FE000414172585E586C6668644141686841414D
:104FF000939F6470454B5C5C687849504347897661
:10500000414191838D76766C62568D937258858975
:10501000646E606E456E8B89748B647283747E835C
:105020008570876ABAB0A58BA79F6283747E728BE6
:1050300083BE8B7E608BAFBE6C7A8BA1ADA5BEA903
:10504000BEBEBEBEBEB8AD93BEBEBEBE87997E9785
:10505000ADBE93AB8BB883ADBABE919BA795BEB4E2
:10506000BCBEBEBEAF89BEBEBCA97880B4BA767ADB
:10507000B69B9989BEB8BEBEADA79376A57E937E3A
:10508000ABAFB2A5A399A7AF9D899B9D7E74BAA132
:105090007874BCBAB6B2BEB8BE9FBE87BEA77C78D5
:1050A00078768797415A7A856A5E5C687E87626007
:1050B000A1ADA983BE9DB0ADA98BB2AF78817E7C36
:1050C000506049684B6C41435278566670899391A1
:1050D0007A6CB6A5876C95955A6C4F7045784143AC
:1050E000415A41504D6A565ABEB09370BE93BEAFFE
:1050F000AB8D8B818983566449605C9141414158F5
:10510000415E4149627A7E8BBA9BBA87BEA7BEAD2B
:10511000BE9BBEB4BEB2BE99766C4158437C414D35
:1051200052764F66838BA5A39778BEBE7E4DBEA9EF
:10513000BE9DAD8FBEA9979164784160416C476C6C
:105140004B647A8B99A9808D80856E68BEBEB89DB0
:1051500091789185919593A17E8B6470707AA9B8AE
:1051600085955468768B8DAB83A180958583BEB879
:10517000B6A3938D9D99BEB8BEABB4A3A9A1747C10
:10518000ADAD9B956E66939B748574876A7441433D
:105190009FA56E6C8B72BEB8BE83BEB8B893AB9140
:1051A000A7955C58859343624F725C74505A9595ED
:1051B000564DA38F9D83B2997A68706C4D5264727C
:1051C0004141414145704149414D41418D8B4141F2
:1051D0006454806CA389B2918B64977868567A7A0C
:1051E0004141414141544143415C4141415A414F58
:1051F0004141646A5045725E978047434141414155
:105200004145414141415047665281668B68564154
:105210009B7C897052414141546241584141526CDA
:1052200041414D49897C8978624B9D83A187937860
:105230007E5CAB89856C7C68645E726A766C74682F
:1052400080726454A389785C8B66A7879B7895707D
:10525000A18378607E78727462666C74414B769537
:105260004560708D56606E7C80855A5CB2AD7C74F2
:105270006C7C5A7A41686499415C4D914152415E1F
:105280004D91416270AB5A8981A78F9DB6B2A999A1
:10529000BEBEBEBEBEBEBEBE9BADA1BEA5BE6A8B1F
:1052A0007299B4BE5883AFBEA7BEBEBEBEBEA597A0
:1052B000BEBEBEA7BEBEBEBEBEBEBAB8B2AFB6BE52
:1052C000A5ADB8BE9F9DBEBEBEBEBEA7BEBEBEBE85
:1052D000BEBEBEBEBE9DBEBEB491B8AB6E6CA1B22A
:1052E000495A74935A6C8183807E6656BC9FA3850D
:1052F000B08BA578AF81BEA59D74786089786C6EFF
:105300004147587041414154414F414156784141D4
:105310006E767A646E625E506266646C5C5A414B73
:1053200041415A6A4143585E4952414F416A7E8326
:105330004141525C586C5A816A8341568B9958702E
:10534000A7BA52668B9D7E748093A1A58981BEBE4B
:10535000604BBEBEB0B2979BB2A3B29FBEB28D6887
:10536000B6938B72BEB89D859B9DBEA78D6ABEBE4F
:10537000915CBA9FBC95BEA3BE97A77EB89DBE8F19
:10538000BEBEA372BEA3BEB4BEA1BEBEADA1A5AD3E
:10539000748995B87081ADAF7A95A39DADBE8183B8
:1053A000B0BEA1A3919BA7B8A39FA5ADA7A799A1A4
:1053B0009FAF8FA5627E91AD80A5587A7EA7687A4F
:1053C0009BB2808BB8BE5262A1B8919F707E8BA9B0
:1053D0004D5A8BAB415C587441545C8043604558D6
:1053E0004164665C707A7460AB7899839B508D6A77
:1053F000685256416A6C4141507241414162416676
:10540000525C41414D54565672687E60664B7C4FEB
:105410007A68764F45418B8141415C5A4141414117
:10542000414141415A50625A604F725891805841EF
:105430008354564156414D4147415C5A644F414166
:105440005C5A4341665E5666494B5E7441416264F4
:1054500041415A494141414141524141415C4149E7
:105460005E744152665C4D605A477C7A52509B8B09
:105470006872857C7E855C5E727C64687276526838
:105480006A6858706E7A6668726E78788F899F9DA8
:10549000838395838068A57C9D8B7E5C83708587E4
:1054A000938097939D9F9B81BEBE9B919B9D99A747
:1054B000B0B299A19787A9B09F8FA1BE819BA7BECB
:1054C0008FBE97ADA7BEA7AFBEBEBEBABEBEBEBEA4
:1054D000B4AFBCBEBEBEBEBEA19BBEBEADB8A5A194
:1054E0009BA59593B2AB9B939180AD93AF9597811C
:1054F000A7A597AD83A376AB74AB6C9978A1839D78
:10550000A1919D8DA77EB681BEA1BE9F9F87A99FB9
:105510008D8B919566806A7E5A76567C647C667A1D
:10552000728187709383A18DA98F9FA1BEB4ABAD0B
:10553000BEAB9F91978B837478856880627E6E95F1
:105540005E8B768B7C918B9B8F8F9795999DB29775
:10555000AD9FB2A19D8B8F978189767E85936A6E70
:10556000877C7E80836A7E6891838B7E85859BA500
:105570006C7A707C66727A87727862686A787A80F0
:105580006E7C66767C818785817E8D8B99998393ED
:1055900089979FA393939980A18997769B7A785A4C
:1055A00085748F809387878B8F83959B8F8F8D9743
:1055B000878981808780A7997E725E5249456452AF
:1055C000877E998787788980A9A5A19B9B939389DA
:1055D0009F8D937C836C7C68786881857A81647404
:1055E0005E6C6C807E8D7E8F7895808F899B7E89A6
:1055F0007A816E72686A686C565A50545C645E6E4A
:1056000054584F544B525C5C646866666C68786CA6
:105610007A666C6466586C5C6C64665A665C6A6632
:10562000817C8B87978F8785858183808078786E52
:105630006E666E645C644F604B68476E41704B747D
:10564000527A607A767E8B838B7A97838B748F8184
:105650008B85747C606A607C708372815268414182
:10566000414149627C8F7C877A7A80749387A58BCD
:10567000998591808F81857E7874727483838B91F4
:105680007A83647A5C68707C6C767A7A7A767072E7
:105690006A686456645C5C4F5247434341414141F0
:1056A0004141414F4F60585C564F685A685E766C76
:1056B0007874808091838F838B7C958197878F818D
:1056C0008978837689788F819987938D85808F8774
:1056D0008D93939595919397858F808585937E8300
:1056E0008B809781A587A983A78BA18D9B8D95958D
:1056F00095978F9781897E856E7E818B9BA38591FF
:105700005C5650496E66A393BEB8B2AD9993ABA7F1
:10571000B2BCA3AD8B9D809391A599A99199959FBA
:105720009DA3A7A98D9770726E6E8083918D8B8DCE
:1057300080837881818F7A83666C5C5E5E54504D85
:105740004F41584B6E607666665658505A58686896
:105750006E766E786E78787A768380837E857E89A1
:10576000878993919D93AD9FB2A5ABA39999898F9A
:10577000818D8B93959D959B93958B8F9191939113
:10578000978F9B9399919F93A199A79DADA9ABA347
:10579000A1999791938D97919599919787918B97CF
:1057A0009DA9AFBC9199646E505A747AAFB0B8BAE3
:1057B0009F958D839F939B918585727C6880729164
:1057C00078997E9D8DA9A1B49FAF81936C76647208
:1057D00070767E7C817E8976836E8068785C644F8B
:1057E0004D41414141414B4B4D49544F544B524126
:1057F0004D4150415C4770587E687E6A87748D8049
:10580000978B978F918B8985857C87838D878B81FB
:1058100080807A7A727264665C60606466706C7CA8
:105820007685838993919F91A78DA5899D8B978D6F
:105830008D958B9D8197839B83998799879B809773
:105840007E93809391A1A1ADA9A79795726C6054A6
:10585000786EA79FB8B2A5A789918B999DAB97A3A6
:1058600080817C749B89BA9DBC99B493B491B093A8
:1058700095817262645A6A6672786A7458604D5C87
:10588000545E5A6050524543434145414947494D52
:105890004F5C5468567050684D5E56606E708D87D0
:1058A000998F9D939F97A19799938585787A787A18
:1058B00081878B938F978D9B808F6A7C586E5468FD
:1058C0005C6A6C787A8085858D8D91918B8B7680E2
:1058D0006E74707A7E8B818D7A877A877C877E85DD
:1058E00076807A7C8180918F9F99A9A3A9A79395AF
:1058F0006A704B56566081879D9D93898172897627
:10590000A18F9F9189817676787C818B8995939FF1
:1059100099A39D9F959181787464726074666C60A0
:105920005E545A56625A6C62625A4B474141414139
:10593000414141434149414B414D454D45474D4909
:1059400060567864937CA791B4A3B2A99DA57E917B
:105950006880607C60786A7A787C7E7A83768572EB
:10596000816C7C68786C817487818B8B8789858753
:1059700081837A7A76727872807E89898F918D910F
:105980008F939B9BA39DA59BA397A7959B8B9B8D7B
:105990009F939B9174724141414156668D9B91A1A9
:1059A00080878080A9A5BCB8A39F7E8376878BA5BE
:1059B00091AF8DA795A9AFB6BEB8AB9D95819B87DA
:1059C000A999A59D8B8D747C6E7A6E7A6468504D12
:1059D00049414D415C476C5A76687C6E7C767A769C
:1059E00076787A7C7E7E808085858F899B95A19B49
:1059F0009D978B8978786A70727C808D81937C8D7D
:105A000076857C818180837A857281707E727A7AD4
:105A10007E8587918D978D8F89838B8097899D95C2
:105A2000999591958B978993818B7C8383879591A9
:105A30009B939B8D9F8FB09FAFA3807C494D41412D
:105A40005C68919D9B9D8983877EA999B6A9A5973E
:105A5000857E857E9D95A19F9799939B97A1919D0A
:105A60007A816460685C81708F7C80726462566445
:105A70005A725272415A41454141434D5858685CEF
:105A800076627E66816A836E8372837A837E7C7897
:105A90007C7E898F9BA19BA1858B707466666A64EE
:105AA000746A81728F78957A91768D70876C7C6834
:105AB0006C605E5856585A60646C686E62685E62CC
:105AC000646476748780958BA195A79BA19D939B19
:105AD0008D9D859D819983958993878D9593A1A7A8
